:020000040000FA
:100000000C9463000C948B000C948B000C94A40350
:100010000C94A4030C94A4030C948B000C948B00FC
:100020000C948B000C948B000C948B000C948B0024
:100030000C948B000C948B000C948B000C948B0014
:100040000C9402030C948B000C9472030C944C03DC
:100050000C948B000C948B000C948B000C948B00F4
:100060000C948B000C948B0000000008000201002F
:100070000003040700000000000000000000000072
:1000800023002600290000000000240027002A0089
:1000900000000000250028002B00040404040404D0
:1000A0000404020202020202030303030303010227
:1000B00004081020408001020408102001020408F6
:1000C00010206804440711241FBECFEFD8E0DEBF24
:1000D000CDBF22E0ACE4B1E001C01D92AB35B20768
:1000E000E1F711E0A0E0B1E0E2EAF3E102C005903F
:1000F0000D92AC34B107D9F710E0C2E6D0E004C0ED
:100100002197FE010E94CC07C136D107C9F70E9492
:1001100051050C94C4090C9400003FB7F8948091E9
:10012000970190919801A0919901B0919A0126B5FB
:10013000A89B05C02F3F19F00196A11DB11D3FBF1F
:10014000BA2FA92F982F8827BC01CD01620F711DEE
:10015000811D911D42E0660F771F881F991F4A95E8
:10016000D1F70895AF92BF92CF92DF92EF92FF92B4
:100170000F931F93CF93DF936C017B018B01040FCF
:10018000151FEB015E01AE18BF08C017D10759F06B
:100190006991D601ED91FC910190F081E02DC601AD
:1001A0000995892B79F7C501DF91CF911F910F91A7
:1001B000FF90EF90DF90CF90BF90AF900895FC013B
:1001C000538D448D252F30E0842F90E0821B930BBC
:1001D000541710F0CF96089501970895FC01918D62
:1001E000828D981761F0A28DAE0FBF2FB11D5D9665
:1001F0008C91928D9F5F9F73928F90E008958FEF07
:100200009FEF0895FC01918D828D981731F0828DBA
:10021000E80FF11D858D90E008958FEF9FEF089511
:10022000FC01918D228D892F90E0805C9F4F821B75
:1002300091098F73992708958BE991E00E9410012D
:1002400021E0892B09F420E0822F089580E090E0DE
:10025000892B29F00E941C0181110C940000089543
:10026000FC01A48DA80FB92FB11DA35ABF4F2C912B
:10027000848D90E001968F739927848FA689B78922
:100280002C93A089B1898C91837080648C93938D19
:10029000848D981306C00288F389E02D80818F7DBC
:1002A00080830895EF92FF920F931F93CF93DF9374
:1002B000EC0181E0888F9B8D8C8D98131AC0E889A2
:1002C000F989808185FF15C09FB7F894EE89FF8971
:1002D0006083E889F98980818370806480839FBF0F
:1002E00081E090E0DF91CF911F910F91FF90EF900F
:1002F0000895F62E0B8D10E00F5F1F4F0F7311271F
:10030000E02E8C8D8E110CC00FB607FCFACFE88959
:10031000F989808185FFF5CFCE010E943001F1CFB0
:10032000EB8DEC0FFD2FF11DE35AFF4FF0829FB7CD
:10033000F8940B8FEA89FB8980818062CFCFCF93BD
:10034000DF93EC01888D8823B9F0AA89BB89E889FD
:10035000F9898C9185FD03C0808186FD0DC00FB6A3
:1003600007FCF7CF8C9185FFF2CF808185FFEDCF21
:10037000CE010E943001E9CFDF91CF910895209105
:100380008E0130918F012817390771F490918C01FB
:1003900080918D01981741F0E0918C01F0E0E45BD1
:1003A000FE4F808190E008958FEF9FEF08950895AC
:1003B000EF92FF920F931F93CF93DF93DC015C9634
:1003C000ED90FC905D97E114F10479F481E090E008
:1003D00013969C938E93129790E080E0DF91CF91DB
:1003E0001F910F91FF90EF9008955196ED91FC9120
:1003F000529750968C915097982F90950FB75E9684
:100400002C915E97122F127021FD6095F894208137
:10041000112319F1282B2083E7012197F1F728E018
:10042000462F50E0308160FF1AC0382B3083E7013F
:100430002197F1F7BA0175956795215089F7112336
:1004400081F08081892380830FBF5C968D919C9180
:100450000197F1F781E090E0C1CF2923DCCF392368
:10046000E5CF9081892BEFCF20918E0130918F01C4
:100470002817390761F480918D0120918C0190E05B
:10048000805C9F4F821B91098F739927089590E09C
:1004900080E0089520918E0130918F01281739074F
:1004A000B9F490918C0180918D01981789F0E091B9
:1004B0008C01F0E0E45BFE4F808120918C0130E004
:1004C0002F5F3F4F2F73332720938C0190E00895C7
:1004D0008FEF9FEF089590E080E00895FB01019079
:1004E0000020E9F73197AF01461B570BDC01ED9176
:1004F000FC910280F381E02D0994FC0180819181BF
:10050000009711F00C946E0808950F931F93CF93EA
:10051000DF93EC0188819981009759F02A813B8112
:100520002617370730F081E0DF91CF911F910F91AF
:1005300008958B016F5F7F4F0E94F708009759F075
:10054000998388831B830A832C813D81232B59F750
:10055000FC011082E8CF80E0E7CFCF92DF92EF92EC
:10056000FF920F931F93CF93DF93CDB7DEB76297C0
:100570000FB6F894DEBF0FBECDBF8C01CB01F801E2
:100580001182108213821282158214824AE09E0127
:100590002F5F3F4F6901B9010E946007F60101908A
:1005A0000020E9F731977F01EC18FD08B701C80179
:1005B0000E948502F8012081318181111CC0211522
:1005C000310519F0C9010E946E08F80111821082EC
:1005D000158214821382128262960FB6F894DEBFDF
:1005E0000FBECDBFDF91CF911F910F91FF90EF9084
:1005F000DF90CF900895F582E482B601C9010E9490
:10060000BD09EACF1F920F920FB60F9211242F93BC
:100610003F938F939F93AF93BF938091930190915A
:100620009401A0919501B09196013091920123E03F
:10063000230F2D3758F50196A11DB11D209392016E
:100640008093930190939401A0939501B0939601A8
:100650008091970190919801A0919901B0919A0190
:100660000196A11DB11D8093970190939801A093CD
:100670009901B0939A01BF91AF919F918F913F9152
:100680002F910F900FBE0F901F90189526E8230F03
:100690000296A11DB11DD2CF1F920F920FB60F92DD
:1006A00011242F933F934F935F936F937F938F9377
:1006B0009F93AF93BF93EF93FF938BE991E00E94D9
:1006C0003001FF91EF91BF91AF919F918F917F91F9
:1006D0006F915F914F913F912F910F900FBE0F90AF
:1006E0001F9018951F920F920FB60F9211242F93FF
:1006F0008F939F93EF93FF93E091AB01F091AC0147
:100700008081E091B101F091B20182FD1BC0908126
:100710008091B4018F5F8F732091B501821741F0F2
:10072000E091B401F0E0E556FE4F958F8093B4015F
:10073000FF91EF919F918F912F910F900FBE0F908E
:100740001F9018958081F4CF1F920F920FB60F92D1
:1007500011242F933F934F935F936F937F938F93C6
:100760009F93AF93BF93EF93FF93E0918E01F0912E
:100770008F01309749F0A685B7858585968D91FFC5
:1007800014C09C918923A1F4FF91EF91BF91AF9187
:100790009F918F917F916F915F914F913F912F9199
:1007A0000F900FBE0F901F9018959C91892361F7B1
:1007B000A389B4899C918589809589238C938689A6
:1007C00097890197F1F7608D718DA685B78555855D
:1007D00038E020E0CB010197F1F7822F90E095956A
:1007E0008795282F4C91452309F02068315091F7C7
:1007F000868D81FD209580918D0190E001968F730B
:10080000992730918C01381799F0A0918D01B0E0B3
:10081000A45BBE4F2C9380938D01828D938D0197A5
:10082000F1F7A389B4898C919589892B8C93ACCFEE
:10083000868D8160868FF1CF90E0FC01E859FF4FF3
:100840002491FC01E255FF4F3491FC01E656FF4F25
:10085000E491EE23C9F0222339F0233001F1A8F40A
:10086000213019F1223029F1F0E0EE0FFF1FE0579F
:10087000FF4FA591B4918FB7F894EC91611126C008
:1008800030953E233C938FBF08952730A9F0283040
:10089000C9F0243049F7809180008F7D03C080919A
:1008A00080008F7780938000DFCF84B58F7784BD01
:1008B000DBCF84B58F7DFBCF8091B0008F778093A5
:1008C000B000D2CF8091B0008F7DF9CF3E2BDACF30
:1008D0000F931F93CF93DF9310929E0110929D016F
:1008E00088EE93E0A0E0B0E080939F019093A00198
:1008F000A093A101B093A2012AE031E030939C01C2
:1009000020939B0125EC30E03093A8012093A701B0
:1009100024EC30E03093AA012093A90120EC30E0D0
:100920003093AC012093AB0121EC30E03093AE0169
:100930002093AD0122EC30E03093B0012093AF0161
:1009400026EC30E03093B2012093B1011092B40153
:100950001092B5011092B6011092B70110923B02AD
:1009600010923A0280933C0290933D02A0933E0283
:10097000B0933F028CE191E090933902809338026A
:1009800010924F0210924E02109251021092500299
:100990001092530210925202109255021092540279
:1009A000609156026E7F6D7F60935602669561700E
:1009B00081E0682784E00E941C0442EB50E0FA01C9
:1009C00064918EE990E0FC012491222399F030E0BB
:1009D000220F331FF901EA57FF4FA591B491F90196
:1009E000E057FF4F259134912FB7F8943C91632B3A
:1009F0006C932FBFFA01449140934802FC0184910B
:100A0000E82FF0E0EE0FFF1FE057FF4F8591949124
:100A100090934A028093490200EB10E0F801249180
:100A2000CCE9D0E0FE0184918823C9F090E0880FE2
:100A3000991FFC01EA57FF4FA591B491FC01E057C3
:100A4000FF4F459154913FB7F8949C91822F809528
:100A500098239C93FA019081892380833FBF8091E2
:100A6000560281FD04C061E082E00E941C0482E025
:100A700080934402F801049100934502FE01C49161
:100A8000EC2FF0E0EE0FFF1FE458FF4F859194919B
:100A90009093470280934602DF91CF911F910F916F
:100AA0000895CF93DF93CDB7DEB72C970FB6F894A8
:100AB000DEBF0FBECDBF789484B5826084BD84B59F
:100AC000816084BD85B5826085BD85B5816085BD49
:100AD00080916E00816080936E0010928100809101
:100AE0008100826080938100809181008160809389
:100AF0008100809180008160809380008091B100AE
:100B000084608093B1008091B00081608093B000D8
:100B100080917A00846080937A0080917A0082606C
:100B200080937A0080917A00816080937A0080912E
:100B30007A00806880937A001092C100E091AB0146
:100B4000F091AC0182E08083E091A701F091A801CF
:100B50001082E091A901F091AA018FEC808310929C
:100B6000B301E091AF01F091B00186E08083E091A4
:100B7000AD01F091AE01808180618083E091AD0193
:100B8000F091AE01808188608083E091AD01F091A9
:100B9000AE01808180688083E091AD01F091AE016B
:100BA00080818F7D808310925302109252021092A6
:100BB00051021092500210924F0210924E028DE993
:100BC00091E09093550280935402909144029631A3
:100BD00008F047C02DEB30E030934F0220934E02D7
:100BE0002BE931E030935102209350022CE231E0A6
:100BF00030935302209352022091680084E0983091
:100C000048F031E09E3008F430E081E001C0880F08
:100C10003A95EAF7822B809368002DE630E0983011
:100C200050F02BE630E09E3030F02CE630E096318C
:100C300010F030E020E030934C0220934B02292F3B
:100C400030E0983008F0FCC081E001C0880F9A9530
:100C5000EAF780934D0280915402909155020197DA
:100C6000F1F78091520290915302892B49F1E09162
:100C70008E01F0918F0122E0E833F20709F13097FD
:100C800039F0A389B4899C918589809589238C93B7
:100C9000809156028E7F8093560210928D011092A1
:100CA0008C0188E392E090938F0180938E01E09114
:100CB0004B02F0914C02808190914D02892B8083F0
:100CC0006AE271E08BE991E00E946E0261E471E0FA
:100CD0008BE991E00E946E0290E0E92E90E0F92EFF
:100CE0006091900170919101CE0101960E94AD0238
:100CF0004D815E8169817A8188E392E00E94B20031
:100D000061E471E088E392E00E946E02CE010196F8
:100D10000E947D026091900170919101CE01019637
:100D20000E94AD0218861F821A8619861C861B86B1
:100D300066E070E0CE0107960E9485022F8138851B
:100D400081118BC02115310519F0C9010E946E086F
:100D500018861F821C861B861A861986A980BA806F
:100D6000A114B10409F483C00D811E810115110580
:100D7000B9F08B859C85080F191FB801CE01079625
:100D80000E948502882309F472C02F8138858B85E3
:100D90009C85B501820F931F0E94BD091C870B879C
:100DA0004B855C856F8178858BE991E00E94B2006C
:100DB00061E471E08BE991E00E946E02CE0107963A
:100DC0000E947D02CE0101960E947D0280919001D9
:100DD00090919101019690939101809390010E94CE
:100DE0008D004B015C0188EE482E83E0582E612C6B
:100DF000712C0E948D00681979098A099B09683E47
:100E0000734081059105A8F381E0481A51086108F3
:100E1000710828EE820E23E0921EA11CB11C411421
:100E200051046104710429F7E114F10409F458CF65
:100E30000E941C01882309F453CF0E94000050CF68
:100E40009E3040F42850310981E001C0880F2A9576
:100E5000EAF7FFCE2E503109F7CF86E090E09C876D
:100E60008B8764E471E0C9010E94BD0977CF8F814F
:100E70009885009711F00E946E0818861F821C86C4
:100E80001B861A8619868CCF8CE191E090933902EB
:100E90008093380280918E0190918F018853924007
:100EA00071F4E0914B02F0914C02908180914D02DF
:100EB00080958923808310928F0110928E0108956E
:100EC000BB274A3031F4992322F4BDE290958195F5
:100ED0009F4F0C946C07BB27FB015527AA27880F4F
:100EE000991FAA1FA41710F0A41B83955051B9F79E
:100EF000A05DAA3308F0A95DA193009779F7B1111D
:100F0000B1931192CB010C948507DC01FC01672F92
:100F100071917723E1F7329704C07C916D937083D0
:100F20006291AE17BF07C8F308952F923F924F9278
:100F30005F926F927F928F929F92AF92BF92CF9269
:100F4000DF92EF92FF920F931F93CF93DF93CDB772
:100F5000DEB7CA1BDB0B0FB6F894DEBF0FBECDBFEA
:100F600009942A88398848885F846E847D848C84BB
:100F70009B84AA84B984C884DF80EE80FD800C81C4
:100F80001B81AA81B981CE0FD11D0FB6F894DEBFA7
:100F90000FBECDBFED010895EE0FFF1F0590F49138
:100FA000E02D09940F931F93CF93DF938230910527
:100FB00010F482E090E0E0915902F0915A0230E0A2
:100FC00020E0B0E0A0E0309799F42115310509F454
:100FD0004AC0281B390B24303105D8F58A819B8102
:100FE0006115710589F1FB0193838283FE0111C0B4
:100FF000408151810281138148175907E0F0481759
:10100000590799F4109761F012960C931297139662
:101010001C933296CF01DF91CF911F910F910895CC
:101020000093590210935A02F4CF2115310551F063
:101030004217530738F0A901DB019A01BD01DF0116
:10104000F801C1CFEF01F9CF90935A028093590272
:10105000CDCFFE01E20FF31F81939193225031090E
:1010600039832883D7CF2091570230915802232B00
:1010700041F42091020130910301309358022093F2
:10108000570220910001309101012115310541F4F1
:101090002DB73EB74091040150910501241B350B3B
:1010A000E0915702F0915802E217F307A0F42E1BCB
:1010B0003F0B2817390778F0AC014E5F5F4F2417BC
:1010C000350748F04E0F5F1F509358024093570268
:1010D000819391939FCFF0E0E0E09CCFCF93DF939B
:1010E0000097E9F0FC01329713821282A091590215
:1010F000B0915A02ED0130E020E01097A1F4208178
:101100003181820F931F2091570230915802281786
:10111000390709F061C0F0935802E0935702DF915C
:10112000CF910895EA01CE17DF07E8F54A815B8188
:101130009E0141155105B1F7E901FB83EA8349910D
:101140005991C40FD51FEC17FD0761F4808191817F
:101150000296840F951FE901998388838281938188
:101160009B838A83F0E0E0E012968D919C91139727
:101170000097B9F52D913C911197CD010296820F00
:10118000931F20915702309158022817390739F6DA
:10119000309751F510925A0210925902B0935802AA
:1011A000A0935702BCCFD383C28340815181840F67
:1011B000951FC817D90761F44E5F5F4F88819981E9
:1011C000480F591F518340838A819B819383828377
:1011D0002115310509F0B0CFF0935A02E09359027E
:1011E0009ECFFD01DC01C0CF13821282D7CFB0E0C9
:1011F000A0E0EDEFF8E00C9497078C01009751F414
:10120000CB010E94D2078C01C801CDB7DEB7E0E167
:101210000C94B307FC01E60FF71F9C012250310923
:10122000E217F30708F49DC0D901CD91DC91119725
:10123000C617D70798F0C530D10530F3CE01049713
:101240008617970708F3C61BD70B2297C193D19334
:101250006D937C93CF010E946E08D6CF5B01AC1AD0
:10126000BD0A4C018C0E9D1EA0915902B0915A02EC
:10127000512C412CF12CE12C109731F58091570223
:10128000909158028815990509F05CC046165706DA
:1012900008F058C08091000190910101009741F43D
:1012A0008DB79EB74091040150910501841B950BA9
:1012B000E817F90708F055C0F0935802E093570279
:1012C000F90171836083A0CF8D919C911197129643
:1012D0006C90129713967C901397A815B90559F541
:1012E0006C0142E0C40ED11CCA14DB0420F1AC0135
:1012F0004A195B09DA011296159780F062827382AF
:1013000051834083D9016D937C93E114F10471F012
:10131000D7011396FC93EE93129776CF22968C0FFB
:101320009D1FF90191838083F301EFCFF0935A025F
:10133000E093590269CF4816590608F42C017D0143
:10134000D3019ACFCB010E94D2077C01009749F0CC
:10135000AE01B8010E94B409C8010E946E0887015D
:1013600053CF10E000E050CFFB01DC0102C0019040
:101370000D9241505040D8F70895FB01DC010190D7
:101380000D920020E1F7089510E0C2E6D0E004C01D
:10139000FE010E94CC072196C336D107C9F7F89405
:1013A000FFCF00005B028000000000005201B2008D
:1013B000DF009F011001EE00020100000000D801D3
:1013C000B2006B02D70134024A02BF0145535033C9
:1013D000322055415254205472616E736D69747499
:0E13E0006572000D0A0053656E743A2000001D
:107E0000112484B714BE81FFF0D085E080938100F7
:107E100082E08093C00088E18093C10086E0809377
:107E2000C20080E18093C4008EE0C9D0259A86E02C
:107E300020E33CEF91E0309385002093840096BBD3
:107E4000B09BFECF1D9AA8958150A9F7CC24DD24C4
:107E500088248394B5E0AB2EA1E19A2EF3E0BF2EE7
:107E6000A2D0813461F49FD0082FAFD0023811F036
:107E7000013811F484E001C083E08DD089C08234E0
:107E800011F484E103C0853419F485E0A6D080C0E4
:107E9000853579F488D0E82EFF2485D0082F10E0AE
:107EA000102F00270E291F29000F111F8ED06801E7
:107EB0006FC0863521F484E090D080E0DECF843638
:107EC00009F040C070D06FD0082F6DD080E0C81688
:107ED00080E7D80618F4F601B7BEE895C0E0D1E017
:107EE00062D089930C17E1F7F0E0CF16F0E7DF06D8
:107EF00018F0F601B7BEE89568D007B600FCFDCFD4
:107F0000A601A0E0B1E02C9130E011968C91119780
:107F100090E0982F8827822B932B1296FA010C0160
:107F200087BEE89511244E5F5F4FF1E0A038BF0790
:107F300051F7F601A7BEE89507B600FCFDCF97BE46
:107F4000E89526C08437B1F42ED02DD0F82E2BD052
:107F50003CD0F601EF2C8F010F5F1F4F84911BD097
:107F6000EA94F801C1F70894C11CD11CFA94CF0C13
:107F7000D11C0EC0853739F428D08EE10CD085E9AC
:107F80000AD08FE07ACF813511F488E018D01DD067
:107F900080E101D065CF982F8091C00085FFFCCF94
:107FA0009093C60008958091C00087FFFCCF809118
:107FB000C00084FD01C0A8958091C6000895E0E648
:107FC000F0E098E1908380830895EDDF803219F02E
:107FD00088E0F5DFFFCF84E1DECF1F93182FE3DFCA
:107FE0001150E9F7F2DF1F91089580E0E8DFEE27F6
:047FF000FF270994CA
:027FFE00040479
:00000001FF
