:100000000C9434000C9451000C9451000C94510049
:100010000C9451000C9451000C9451000C9451001C
:100020000C9451000C9451000C9451000C9451000C
:100030000C9451000C9451000C9451000C945100FC
:100040000C94AA000C9451000C9451000C94510093
:100050000C9451000C9451000C9451000C945100DC
:100060000C9451000C94510011241FBECFEFD8E026
:10007000DEBFCDBF11E0A0E0B1E0E4E3F3E002C0F9
:1000800005900D92A230B107D9F721E0A2E0B1E0CE
:1000900001C01D92AD30B207E1F70E94F4000C944C
:1000A00098010C9400003FB7F89480910901909159
:1000B0000A01A0910B01B0910C0126B5A89B05C0C7
:1000C0002F3F19F00196A11DB11D3FBFBA2FA92FD7
:1000D000982F8827BC01CD01620F711D811D911DD4
:1000E00042E0660F771F881F991F4A95D1F7089540
:1000F0008F929F92AF92BF92CF92DF92EF92FF9238
:100100004B015C010E9453006B017C010E94530073
:100110006C197D098E099F09683E73408105910520
:10012000A8F321E0821A9108A108B10888EEC80E50
:1001300083E0D81EE11CF11C81149104A104B104D8
:1001400029F7FF90EF90DF90CF90BF90AF909F90F6
:100150008F9008951F920F920FB60F9211242F9334
:100160003F938F939F93AF93BF938091050190919D
:100170000601A0910701B09108013091040123E02C
:10018000230F2D3758F50196A11DB11D20930401B1
:100190008093050190930601A0930701B093080195
:1001A0008091090190910A01A0910B01B0910C017D
:1001B0000196A11DB11D8093090190930A01A0939E
:1001C0000B01B0930C01BF91AF919F918F913F9123
:1001D0002F910F900FBE0F901F90189526E8230FB8
:1001E0000296A11DB11DD2CF789484B5826084BDE2
:1001F00084B5816084BD85B5826085BD85B581602B
:1002000085BD80916E00816080936E0010928100A8
:100210008091810082608093810080918100816063
:100220008093810080918000816080938000809124
:10023000B10084608093B1008091B00081608093B0
:10024000B00080917A00846080937A0080917A0077
:10025000826080937A0080917A00816080937A0036
:1002600080917A00806880937A001092C10064E6E1
:1002700070E080E090E00E94780088E690E0909343
:10028000030180930201549A5C9AC0E0D0E011E629
:10029000409100015C9880910201909103018230AD
:1002A000910538F0880F991F880F991F05970197BE
:1002B000F1F728E030E040FF36C05C9A4695809127
:1002C0000201909103018230910538F0880F991F47
:1002D000880F991F05970197F1F72150310959F7B8
:1002E0005C9A80910201909103018230910538F06F
:1002F000880F991F880F991F05970197F1F75C9A4E
:10030000809100018F5F8B3784F48093000168EE49
:1003100073E080E090E00E947800209709F4B8CF65
:100320000E940000B5CF5C98C9CF10930001EFCFB9
:04033000F894FFCF6F
:02033400610066
:00000001FF
