:100000000C9463000C948B000C948B000C945B0399
:100010000C945B030C945B030C948B000C948B008E
:100020000C948B000C948B000C948B000C948B0024
:100030000C948B000C948B000C948B000C948B0014
:100040000C94B9020C948B000C9429030C940303B8
:100050000C948B000C948B000C948B000C948B00F4
:100060000C948B000C948B0000000008000201002F
:100070000003040700000000000000000000000072
:1000800023002600290000000000240027002A0089
:1000900000000000250028002B00040404040404D0
:1000A0000404020202020202030303030303010227
:1000B00004081020408001020408102001020408F6
:1000C00010201F04F50611241FBECFEFD8E0DEBFBD
:1000D000CDBF22E0ACE4B1E001C01D92A935B2076A
:1000E000E1F711E0A0E0B1E0EAE9F2E102C0059039
:1000F0000D92AC34B107D9F710E0C2E6D0E004C0ED
:100100002197FE010E944807C136D107C9F70E9416
:1001100008050C9440090C940000AF92BF92CF9256
:10012000DF92EF92FF920F931F93CF93DF936C01B7
:100130007B018B01040F151FEB015E01AE18BF0898
:10014000C017D10759F06991D601ED91FC9101904A
:10015000F081E02DC6010995892B79F7C501DF9162
:10016000CF911F910F91FF90EF90DF90CF90BF90B4
:10017000AF900895FC01538D448D252F30E0842FDE
:1001800090E0821B930B541710F0CF9608950197BF
:100190000895FC01918D828D981761F0A28DAE0FAC
:1001A000BF2FB11D5D968C91928D9F5F9F73928F33
:1001B00090E008958FEF9FEF0895FC01918D828D5F
:1001C000981731F0828DE80FF11D858D90E008952C
:1001D0008FEF9FEF0895FC01918D228D892F90E084
:1001E000805C9F4F821B91098F739927089589E93D
:1001F00091E00E94EB0021E0892B09F420E0822F9E
:10020000089580E090E0892B29F00E94F700811189
:100210000C9400000895FC01A48DA80FB92FB11D06
:10022000A35ABF4F2C91848D90E001968F7399272C
:10023000848FA689B7892C93A089B1898C9183700A
:1002400080648C93938D848D981306C00288F38903
:10025000E02D80818F7D80830895EF92FF920F9330
:100260001F93CF93DF93EC0181E0888F9B8D8C8D62
:1002700098131AC0E889F989808185FF15C09FB756
:10028000F894EE89FF896083E889F9898081837019
:10029000806480839FBF81E090E0DF91CF911F91C8
:1002A0000F91FF90EF900895F62E0B8D10E00F5FE9
:1002B0001F4F0F731127E02E8C8D8E110CC00FB6BF
:1002C00007FCFACFE889F989808185FFF5CFCE0157
:1002D0000E940B01F1CFEB8DEC0FFD2FF11DE35AC6
:1002E000FF4FF0829FB7F8940B8FEA89FB898081DA
:1002F0008062CFCFCF93DF93EC01888D8823B9F054
:10030000AA89BB89E889F9898C9185FD03C0808120
:1003100086FD0DC00FB607FCF7CF8C9185FFF2CF9D
:10032000808185FFEDCFCE010E940B01E9CFDF91E7
:10033000CF91089520918E0130918F0128173907B0
:1003400071F490918C0180918D01981741F0E091AA
:100350008C01F0E0E45BFE4F808190E008958FEF28
:100360009FEF08950895EF92FF920F931F93CF93FD
:10037000DF93DC015C96ED90FC905D97E114F10455
:1003800079F481E090E013969C938E93129790E01D
:1003900080E0DF91CF911F910F91FF90EF90089532
:1003A0005196ED91FC91529750968C915097982FC1
:1003B00090950FB75E962C915E97122F127021FDCB
:1003C0006095F8942081112319F1282B2083E701EF
:1003D0002197F1F728E0462F50E0308160FF1AC0E6
:1003E000382B3083E7012197F1F7BA0175956795AE
:1003F000215089F7112381F08081892380830FBFE9
:100400005C968D919C910197F1F781E090E0C1CFCE
:100410002923DCCF3923E5CF9081892BEFCF2091A1
:100420008E0130918F012817390761F480918D0179
:1004300020918C0190E0805C9F4F821B91098F730B
:100440009927089590E080E0089520918E013091E1
:100450008F0128173907B9F490918C0180918D0193
:10046000981789F0E0918C01F0E0E45BFE4F808109
:1004700020918C0130E02F5F3F4F2F733327209363
:100480008C0190E008958FEF9FEF08952FB7F894B7
:100490008091950190919601A0919701B09198015A
:1004A0002FBF80933E0290933F02A0934002B093EF
:1004B000410286E392E00E94250297FF26C02FB7F3
:1004C000F8948091950190919601A0919701B09137
:1004D00098012FBF40913E0250913F02609140022F
:1004E00070914102841B950BA60BB70B40913A0209
:1004F00050913B0260913C0270913D028417950738
:10050000A607B707B0F28FEF9FEF089590E080E065
:10051000089542E050E06AE271E089E991E00C94CC
:100520008D000F931F93CF93DF93EC018881998106
:10053000009759F02A813B812617370730F081E078
:10054000DF91CF911F910F9108958B016F5F7F4FC6
:100550000E947308009759F0998388831B830A834C
:100560002C813D81232B59F7FC011082E8CF80E0DC
:10057000E7CF1F920F920FB60F9211242F933F9344
:100580008F939F93AF93BF93809195019091960124
:10059000A0919701B09198013091940123E0230F2D
:1005A0002D3758F50196A11DB11D2093940180931C
:1005B000950190939601A0939701B0939801809133
:1005C000900190919101A0919201B09193010196B7
:1005D000A11DB11D8093900190939101A093920170
:1005E000B0939301BF91AF919F918F913F912F91C4
:1005F0000F900FBE0F901F90189526E8230F0296BC
:10060000A11DB11DD2CF1F920F920FB60F921124D0
:100610002F933F934F935F936F937F938F939F930A
:10062000AF93BF93EF93FF9389E991E00E940B0191
:10063000FF91EF91BF91AF919F918F917F916F91BA
:100640005F914F913F912F910F900FBE0F901F9090
:1006500018951F920F920FB60F9211242F938F931C
:100660009F93EF93FF93E091A901F091AA018081FC
:10067000E091AF01F091B00182FD1BC090818091AB
:10068000B2018F5F8F732091B301821741F0E09127
:10069000B201F0E0E756FE4F958F8093B201FF91D3
:1006A000EF919F918F912F910F900FBE0F901F9000
:1006B00018958081F4CF1F920F920FB60F921124DC
:1006C0002F933F934F935F936F937F938F939F935A
:1006D000AF93BF93EF93FF93E0918E01F0918F0161
:1006E000309749F0A685B7858585968D91FF14C012
:1006F0009C918923A1F4FF91EF91BF91AF919F91BC
:100700008F917F916F915F914F913F912F910F90BA
:100710000FBE0F901F9018959C91892361F7A389B4
:10072000B4899C918589809589238C938689978942
:100730000197F1F7608D718DA685B785558538E0F5
:1007400020E0CB010197F1F7822F90E095958795F6
:10075000282F4C91452309F02068315091F7868D60
:1007600081FD209580918D0190E001968F739927EE
:1007700030918C01381799F0A0918D01B0E0A45B05
:10078000BE4F2C9380938D01828D938D0197F1F74D
:10079000A389B4898C919589892B8C93ACCF868D54
:1007A0008160868FF1CF90E0FC01E859FF4F2491E2
:1007B000FC01E255FF4F3491FC01E656FF4FE491F6
:1007C000EE23C9F0222339F0233001F1A8F42130BF
:1007D00019F1223029F1F0E0EE0FFF1FE057FF4F33
:1007E000A591B4918FB7F894EC91611126C0309522
:1007F0003E233C938FBF08952730A9F02830C9F0DD
:10080000243049F7809180008F7D03C08091800063
:100810008F7780938000DFCF84B58F7784BDDBCF67
:1008200084B58F7DFBCF8091B0008F778093B0002F
:10083000D2CF8091B0008F7DF9CF3E2BDACF0F93CE
:100840001F93CF93DF9310929C0110929B0188EE2F
:1008500093E0A0E0B0E080939D0190939E01A0936F
:100860009F01B093A0012AE031E030939A012093D8
:10087000990125EC30E03093A6012093A50124ECEA
:1008800030E03093A8012093A70120EC30E03093B2
:10089000AA012093A90121EC30E03093AC01209310
:1008A000AB0122EC30E03093AE012093AD0126EC99
:1008B00030E03093B0012093AF011092B20110925A
:1008C000B3011092B4011092B50110923902109246
:1008D000380280933A0290933B02A0933C02B0937B
:1008E0003D028CE191E090933702809336021092A2
:1008F0004D0210924C0210924F0210924E02109232
:1009000051021092500210925302109252026091C2
:1009100054026E7F6D7F609354026695617081E032
:10092000682784E00E94D30342EB50E0FA0164910F
:100930008EE990E0FC012491222399F030E0220F0F
:10094000331FF901EA57FF4FA591B491F901E05720
:10095000FF4F259134912FB7F8943C91632B6C9302
:100960002FBFFA01449140934602FC018491E82F85
:10097000F0E0EE0FFF1FE057FF4F859194919093A9
:1009800048028093470200EB10E0F8012491CCE983
:10099000D0E0FE0184918823C9F090E0880F991F70
:1009A000FC01EA57FF4FA591B491FC01E057FF4FBE
:1009B000459154913FB7F8949C91822F809598234C
:1009C0009C93FA019081892380833FBF80915402D8
:1009D00081FD04C061E082E00E94D30382E0809345
:1009E0004202F801049100934302FE01C491EC2FEE
:1009F000F0E0EE0FFF1FE458FF4F85919491909324
:100A0000450280934402DF91CF911F910F91089589
:100A1000CF93DF93CDB7DEB72C970FB6F894DEBF38
:100A20000FBECDBF789484B5826084BD84B58160EB
:100A300084BD85B5826085BD85B5816085BD8091A9
:100A40006E00816080936E00109281008091810021
:100A50008260809381008091810081608093810019
:100A6000809180008160809380008091B1008460DB
:100A70008093B1008091B00081608093B00080913C
:100A80007A00846080937A0080917A0082608093FB
:100A90007A0080917A00816080937A0080917A0058
:100AA000806880937A001092C100E091A901F091D2
:100AB000AA0182E08083E091A501F091A601108255
:100AC000E091A701F091A8018FEC80831092B10111
:100AD000E091AD01F091AE0186E08083E091AB0141
:100AE000F091AC01808180618083E091AB01F09155
:100AF000AC01808188608083E091AB01F091AC0112
:100B0000808180688083E091AB01F091AC018081AD
:100B10008F7D8083109251021092500210924F02EA
:100B200010924E0210924D0210924C028DE991E00B
:100B3000909353028093520290914202963108F0B2
:100B400047C02DEB30E030934D0220934C022BE94F
:100B500031E030934F0220934E022CE231E030938B
:100B60005102209350022091680084E0983048F0B0
:100B700031E09E3008F430E081E001C0880F3A9502
:100B8000EAF7822B809368002DE630E0983050F031
:100B90002BE630E09E3030F02CE630E0963110F05D
:100BA00030E020E030934A0220934902292F30E0C0
:100BB000983008F08FC081E001C0880F9A95EAF75D
:100BC00080934B0280915202909153020197F1F76A
:100BD0008091500290915102892B49F1E0918E0150
:100BE000F0918F0182E0E633F80709F1309739F090
:100BF000A389B4899C918589809589238C93809160
:100C000054028E7F8093540210928D0110928C01B9
:100C100086E392E090938F0180938E01E0914902E8
:100C2000F0914A02808190914B02892B808343E1AD
:100C300050E06DE271E089E991E00E948D000E9430
:100C4000890280E0E82E80E0F82E86E392E00E94A0
:100C50000F02892B09F4A6C018861F821A861986EE
:100C60001C861B8670E060E0CE0107960E94910210
:100C70002F81388581113BC02115310519F0C9013B
:100C80000E94EA0718861F821C861B861A86198610
:100C90000E94460297FD33C08A30910581F1898315
:100CA0001A820B851C850F5F1F4FB801CE01079676
:100CB0000E949102882361F32F8138858B859C8562
:100CC000BE016F5F7F4F820F931F0E9439091C87FF
:100CD0000B87DECF9E3040F42850310981E001C0FF
:100CE000880F2A95EAF76CCF2E503109F7CF1C8672
:100CF0001B866CE271E0C9010E943909C9CF1A82D2
:100D000019821C821B821E821D826AE070E0CE0165
:100D100001960E94910229813A8181114FC02115CB
:100D2000310519F0C9010E94EA071A8219821E8250
:100D30001D821C821B82CF80D884C114D10409F487
:100D400047C00B851C8501151105B1F08D819E8171
:100D5000080F191FB801CE0101960E949102882345
:100D6000B9F129813A818D819E81B601820F931F4D
:100D70000E9439091E830D834D815E8169817A81CC
:100D800089E991E00E948D000E94890289819A81FF
:100D9000009711F00E94EA078F819885009711F063
:100DA0000E94EA07E114F10409F44FCF0E94F70012
:100DB000882309F44ACF0E94000047CF8AE090E0E0
:100DC0009E838D8361E471E0C9010E943909B3CF2C
:100DD00089819A81009711F00E94EA071A8219828C
:100DE0001E821D821C821B82C7CF8CE191E09093F2
:100DF00037028093360280918E0190918F01865345
:100E0000924071F4E0914902F0914A029081809100
:100E10004B0280958923808310928F0110928E015E
:100E200008952F923F924F925F926F927F928F928E
:100E30009F92AF92BF92CF92DF92EF92FF920F9369
:100E40001F93CF93DF93CDB7DEB7CA1BDB0B0FB673
:100E5000F894DEBF0FBECDBF09942A883988488830
:100E60005F846E847D848C849B84AA84B984C884C6
:100E7000DF80EE80FD800C811B81AA81B981CE0FBD
:100E8000D11D0FB6F894DEBF0FBECDBFED010895A2
:100E9000EE0FFF1F0590F491E02D09940F931F931F
:100EA000CF93DF938230910510F482E090E0E091DF
:100EB0005702F091580230E020E0B0E0A0E0309717
:100EC00099F42115310509F44AC0281B390B243047
:100ED0003105D8F58A819B816115710589F1FB0186
:100EE00093838283FE0111C040815181028113816D
:100EF00048175907E0F04817590799F4109761F01F
:100F000012960C93129713961C933296CF01DF9191
:100F1000CF911F910F91089500935702109358029B
:100F2000F4CF2115310551F04217530738F0A901CC
:100F3000DB019A01BD01DF01F801C1CFEF01F9CF5B
:100F40009093580280935702CDCFFE01E20FF31F1A
:100F5000819391932250310939832883D7CF2091EF
:100F6000550230915602232B41F420910201309119
:100F700003013093560220935502209100013091D5
:100F800001012115310541F42DB73EB7409104010F
:100F900050910501241B350BE0915502F09156024A
:100FA000E217F307A0F42E1B3F0B2817390778F040
:100FB000AC014E5F5F4F2417350748F04E0F5F1F9F
:100FC0005093560240935502819391939FCFF0E046
:100FD000E0E09CCFCF93DF930097E9F0FC013297DC
:100FE00013821282A0915702B0915802ED0130E0B5
:100FF00020E01097A1F420813181820F931F20916E
:101000005502309156022817390709F061C0F09354
:101010005602E0935502DF91CF910895EA01CE1771
:10102000DF07E8F54A815B819E0141155105B1F763
:10103000E901FB83EA8349915991C40FD51FEC174D
:10104000FD0761F4808191810296840F951FE9016B
:1010500099838883828193819B838A83F0E0E0E097
:1010600012968D919C9113970097B9F52D913C9113
:101070001197CD010296820F931F20915502309156
:1010800056022817390739F6309751F51092580251
:1010900010925702B0935602A0935502BCCFD3834F
:1010A000C28340815181840F951FC817D90761F40D
:1010B0004E5F5F4F88819981480F591F518340834C
:1010C0008A819B81938382832115310509F0B0CFFA
:1010D000F0935802E09357029ECFFD01DC01C0CF90
:1010E00013821282D7CFB0E0A0E0E9E7F8E00C94D9
:1010F00013078C01009751F4CB010E944E078C011D
:10110000C801CDB7DEB7E0E10C942F07FC01E60F74
:10111000F71F9C0122503109E217F30708F49DC024
:10112000D901CD91DC911197C617D70798F0C5303A
:10113000D10530F3CE0104978617970708F3C61B35
:10114000D70B2297C193D1936D937C93CF010E94CB
:10115000EA07D6CF5B01AC1ABD0A4C018C0E9D1E6E
:10116000A0915702B0915802512C412CF12CE12C46
:10117000109731F580915502909156028815990586
:1011800009F05CC04616570608F058C0809100016F
:1011900090910101009741F48DB79EB740910401F1
:1011A00050910501841B950BE817F90708F055C00D
:1011B000F0935602E0935502F90171836083A0CF4A
:1011C0008D919C91119712966C90129713967C902A
:1011D0001397A815B90559F56C0142E0C40ED11C4E
:1011E000CA14DB0420F1AC014A195B09DA0112963A
:1011F000159780F06282738251834083D9016D9389
:101200007C93E114F10471F0D7011396FC93EE93F3
:10121000129776CF22968C0F9D1FF90191838083C0
:10122000F301EFCFF0935802E093570269CF4816CD
:10123000590608F42C017D01D3019ACFCB010E94FD
:101240004E077C01009749F0AE01B8010E943009B9
:10125000C8010E94EA07870153CF10E000E050CF99
:10126000FB01DC0102C001900D9241505040D8F7C3
:101270000895FB01DC0101900D920020E1F7089533
:1012800010E0C2E6D0E004C0FE010E9448072196AB
:0A129000C336D107C9F7F894FFCF69
:10129A00000059028000000000002D018D00BA00F4
:1012AA007A01EB00C900DD0000000000B3018D00E7
:1012BA008602B2010F0225029A010D0A0045535017
:1012CA0033322055415254205265636569766572FE
:0C12DA000052656365697665643A200087
:00000001FF
