:100000000C9435000C945D000C945D000C945D0024
:100010000C945D000C945D000C945D000C945D00EC
:100020000C945D000C945D000C945D000C945D00DC
:100030000C945D000C945D000C945D000C945D00CC
:100040000C94B6030C945D000C9426040C940004EC
:100050000C945D000C945D000C945D000C945D00AC
:100060000C945D000C945D00580411241FBECFEF6A
:10007000D8E0DEBFCDBF11E0A0E0B1E0E8E4F7E1F9
:1000800002C005900D92A837B107D9F722E0A8E782
:10009000B1E001C01D92A139B207E1F710E0C5E35C
:1000A000D0E004C02197FE010E947A0BC433D1072F
:1000B000C9F70E94E3040C94A20B0C9400000F9368
:1000C0001F93CF93DF93C0917402E5E7F2E0CD3246
:1000D00011F0E4E7F2E08F0120E030E0A901D8015F
:1000E000DD918D0180ED8D0F8A3090F4AAE0B0E0B3
:1000F0000E94800B2D2FDD0F330B440B550B260F69
:10010000371F481F591F2053310941095109E7CFB3
:10011000A4E6B0E00E94800BAB01BC01DF0181913D
:1001200090ED980F9A30D0F38E3259F511968C914C
:10013000119790ED980F9A3020F5082E000C990B2E
:10014000C0972AE0289F8001299F100D1124012EBD
:10015000000C220B330B400F511F621F731F1296AE
:100160008C9190ED980F9A3060F4082E000C990B4A
:10017000C097092E000CAA0BBB0B480F591F6A1F12
:100180007B1FCD3239F470956095509541955F4F46
:100190006F4F7F4FCB01BA01DF91CF911F910F912C
:1001A00008954F925F926F927F928F929F92AF923B
:1001B000BF92CF92DF92EF92FF921F93CF93DF9384
:1001C000C4E7D2E0FE01C12CD12C7601119180ED63
:1001D000810F8A30A8F4AAE0B0E0A70196010E943E
:1001E000800BC12E110FDD08EE08FF08C60ED71ECA
:1001F000E81EF91E80E3C81AD108E108F108E6CF2D
:10020000C701B60124E630E040E050E00E94580B00
:100210009B01AC0160EA76E881E090E00E94480B27
:100220004B015C019E01899190ED980F9A30D0F3BB
:100230008E3221F5E901219680E1482E87E2582E81
:10024000612C712CA99180ED8A0F8A30B8F40A2EA6
:10025000000CBB0BD097A30192010E948B0B860E62
:10026000971EA81EB91EC301B2012AE030E040E08B
:1002700050E00E94580B29013A01E4CFC701B601B2
:1002800024E630E040E050E00E94580B60E472E465
:100290008FE090E00E94480B6B017C01C501B40126
:1002A0006D5F7F4F8F4F9F4F26E030E040E050E082
:1002B0000E94580BC701B601620F731F841F951F60
:1002C000DF91CF911F91FF90EF90DF90CF90BF9083
:1002D000AF909F908F907F906F905F904F90089518
:1002E0002FB7F89460917D0170917E0180917F011C
:1002F000909180012FBF0895AF92BF92CF92DF926D
:10030000EF92FF920F931F93CF93DF936C017B01CA
:100310008B01040F151FEB015E01AE18BF08C0175B
:10032000D10759F06991D601ED91FC910190F081CE
:10033000E02DC6010995892B79F7C501DF91CF9191
:100340001F910F91FF90EF90DF90CF90BF90AF90F3
:100350000895FC01538D448D252F30E0842F90E0CB
:10036000821B930B541710F0CF96089501970895B0
:10037000FC01918D828D981761F0A28DAE0FBF2F79
:10038000B11D5D968C91928D9F5F9F73928F90E0CF
:1003900008958FEF9FEF0895FC01918D828D98173E
:1003A00031F0828DE80FF11D858D90E008958FEF7B
:1003B0009FEF0895FC01918D228D892F90E0805C44
:1003C0009F4F821B91098F739927089581E891E0CF
:1003D0000E94DA0121E0892B09F420E0822F0895A0
:1003E00080E090E0892B29F00E94E60181110C94B5
:1003F00000000895FC01A48DA80FB92FB11DA35AC8
:10040000BF4F2C91848D90E001968F739927848F34
:10041000A689B7892C93A089B1898C918370806457
:100420008C93938D848D981306C00288F389E02DF8
:1004300080818F7D80830895EF92FF920F931F93A9
:10044000CF93DF93EC0181E0888F9B8D8C8D981387
:100450001AC0E889F989808185FF15C09FB7F89493
:10046000EE89FF896083E889F989808183708064DF
:1004700080839FBF81E090E0DF91CF911F910F912A
:10048000FF90EF900895F62E0B8D10E00F5F1F4F39
:100490000F731127E02E8C8D8E110CC00FB607FC48
:1004A000FACFE889F989808185FFF5CFCE010E94D6
:1004B000FA01F1CFEB8DEC0FFD2FF11DE35AFF4F49
:1004C000F0829FB7F8940B8FEA89FB898081806264
:1004D000CFCFCF93DF93EC01888D8823B9F0AA8921
:1004E000BB89E889F9898C9185FD03C0808186FDEF
:1004F0000DC00FB607FCF7CF8C9185FFF2CF80813E
:1005000085FFEDCFCE010E94FA01E9CFDF91CF91B7
:100510000895FC0101900020E9F73197AF01481BD5
:10052000590BBC0181E891E00C947C018F929F9261
:10053000AF92BF920F931F93CF93DF93CDB7DEB7E8
:10054000A1970FB6F894DEBF0FBECDBF19A24230FF
:1005500008F44AE08E010F5D1F4F842E912CB12CC0
:10056000A12CA50194010E94580BE62FB901CA01E4
:10057000EA30F4F4E05DD801EE938D01232B242BB7
:10058000252B79F790E080E0109719F0CD010E94BB
:100590008902A1960FB6F894DEBF0FBECDBFDF91E2
:1005A000CF911F910F91BF90AF909F908F90089522
:1005B000E95CE1CF4F925F926F927F928F929F9210
:1005C000AF92BF92CF92DF92EF92FF920F931F9361
:1005D000CF936B017C01742EAC019B010E94430BF5
:1005E000882399F082E191E0CF911F910F91FF90C4
:1005F000EF90DF90CF90BF90AF909F908F907F90C3
:100600006F905F904F900C94890246015701E894D7
:10061000B7F82FEF3FEF4FE75FE7C501B4010E9446
:10062000430B81110DC02FEF3FEF4FE75FE7C5018F
:10063000B4010E94790918161CF486E191E0D4CF28
:100640002FEF3FEF4FE75FE4C701B6010E94D10AE9
:1006500018161CF48AE191E0C7CF2FEF3FEF4FE768
:100660005FECC701B6010E94790987FDF3CF20E056
:1006700030E0A901C701B6010E94790910E000E04D
:1006800087FF0AC06DE281E891E00E941C028C01A4
:10069000F7FAF094F7F8F094C0E060E070E080E0E2
:1006A0009FE37C1641F020E030E040E251E40E94FC
:1006B0007E09CF5FF6CFA70196010E940D092B019D
:1006C0003C010E94F0094B015C014AE00E94960245
:1006D0007C01E00EF11ECC23C1F1C501B4010E94E2
:1006E0001F0A9B01AC01C301B2010E940C094B011E
:1006F0005C016EE281E891E00E941C02E80EF91EA6
:10070000C15018F120E030E040E251E4C501B401ED
:100710000E94D60A2B013C010E94F0094B01B12C2A
:10072000A12C4AE0C501B4010E949602E80EF91E10
:10073000C501B4010E941F0A9B01AC01C301B201B3
:100740000E940C094B015C01DBCFC701CF911F91C7
:100750000F91FF90EF90DF90CF90BF90AF909F9060
:100760008F907F906F905F904F9008951F920F929F
:100770000FB60F9211242F933F938F939F93AF93B4
:10078000BF9380917D0190917E01A0917F01B091F6
:10079000800130917C0123E0230F2D3758F501961D
:1007A000A11DB11D20937C0180937D0190937E015A
:1007B000A0937F01B093800180917801909179019D
:1007C000A0917A01B0917B010196A11DB11D80938A
:1007D000780190937901A0937A01B0937B01BF9146
:1007E000AF919F918F913F912F910F900FBE0F90DE
:1007F0001F90189526E8230F0296A11DB11DD2CF98
:100800001F920F920FB60F9211242F933F934F9385
:100810005F936F937F938F939F93AF93BF93EF9368
:10082000FF9381E891E00E94FA01FF91EF91BF915F
:10083000AF919F918F917F916F915F914F913F9178
:100840002F910F900FBE0F901F9018951F920F922F
:100850000FB60F9211242F938F939F93EF93FF93D3
:10086000E0919101F09192018081E0919701F091E6
:10087000980182FD1BC0908180919A018F5F8F73D8
:1008800020919B01821741F0E0919A01F0E0EF572F
:10089000FE4F958F80939A01FF91EF919F918F91D9
:1008A0002F910F900FBE0F901F9018958081F4CF5D
:1008B000E1E8F1E01382128288EE93E0A0E0B0E07C
:1008C00084839583A683B78384E091E091838083BA
:1008D00085EC90E09587848784EC90E09787868705
:1008E00080EC90E0918B808B81EC90E0938B828BFD
:1008F00082EC90E0958B848B86EC90E0978B868BD6
:10090000118E128E138E148EEEE1F2E04FEF5FEF38
:10091000BA014083518362837383108611861286E5
:1009200013868FEF99ECAAE9BBE3808B918BA28BA6
:10093000B38B808F918FA28FB38F80A391A3A2A33B
:10094000B3A380A791A7A2A7B3A780AB91ABA2AB9B
:10095000B3AB40AF51AF62AF73AF8FEF90E0909306
:100960005F0280935E024093620250936302609341
:1009700064027093650240936A0250936B02609325
:100980006C0270936D02109272021092730282E0F8
:100990008093830210928402109285021092860244
:1009A00010928702109288021092890210928A0295
:1009B00010928C0210928B0210928E0210928D0275
:1009C000109274020895789484B5826084BD84B5D1
:1009D000816084BD85B5826085BD85B5816085BD3A
:1009E00080916E00816080936E00109281008091F2
:1009F000810082608093810080918100816080937A
:100A00008100809180008160809380008091B1009E
:100A100084608093B1008091B00081608093B000C9
:100A200080917A00846080937A0080917A0082605D
:100A300080937A0080917A00816080937A0080911F
:100A40007A00806880937A001092C100E091910151
:100A5000F091920182E08083E0918D01F0918E010E
:100A60001082E0918F01F09190018FEC80831092C1
:100A70009901E0919501F091960186E08083E091E3
:100A80009301F0919401808180618083E0919301D2
:100A9000F0919401808188608083E0919301F091CE
:100AA0009401808180688083E0919301F0919401AA
:100AB00080818F7D80838EE191E00E9489028CE3AA
:100AC00091E00E9489028FE391E00E9489028CE309
:100AD00091E00E94890290E0E92E90E0F92ED2E0A8
:100AE00001E00E9470014B015C0110E00E94700166
:100AF000681979098A099B09683E73408105910547
:100B000008F45CC1112309F471C040902E0250908A
:100B10002F026090300270903102809036029090E7
:100B20003702A0903802B090390280916A02909109
:100B30006B02A0916C02B0916D028F3F9F4FAF4F3F
:100B4000BF4F11F00E947001FFEF4F16F9EC5F06E6
:100B5000FAE96F06FBE37F0609F429C3C301B2017A
:100B60000E94210A20E034E244E759E40E947E0911
:100B70002B013C01C501B4010E94210A20E034E2AE
:100B800044E759E40E947E094B015C0189E691E04B
:100B90000E94890220E030E04AE754E4C301B20138
:100BA0000E947909811103C0412C512C320146E089
:100BB000C301B2010E94DA028FE691E00E9489022D
:100BC00020E030E04AE754E4C501B4010E9479090D
:100BD000811103C0812C912C540146E0C501B40160
:100BE0000E94DA028CE391E00E948902E114F10490
:100BF00009F477CF0E94E601882309F472CF0E949E
:100C000000006FCFCA3209F405C1CC3209F0BBC273
:100C1000809172028C2780937202FCC090918402B2
:100C2000F0E0EC58FD4F1082D0907302DD2009F403
:100C30006AC120917402822F022E000C990B3FEBA7
:100C4000320F363008F0EBC0C7978295807F9091C5
:100C50007502292F092E000C330B4FEB490F46303C
:100C600008F0E5C027533109820F90917202891371
:100C700040C1D0908602DD2009F4CFC080918B0264
:100C800090918C02019690938C0280938B028091BC
:100C9000660290916702A0916802B0916902809308
:100CA000620290936302A0936402B0936502809104
:100CB0006E0290916F02A0917002B09171028093C8
:100CC0006A0290936B02A0936C02B0936D028091C4
:100CD0008302882309F4B4C0813009F060C0809198
:100CE000220290912302A0912402B09125028093C8
:100CF0001E0290931F02A0932002B09321028091C4
:100D00002A0290912B02A0912C02B0912D02809387
:100D1000260290932702A0932802B0932902809183
:100D2000320290913302A0913402B0913502809347
:100D30002E0290932F02A0933002B0933102809143
:100D40003A0290913B02A0913C02B0913D02809307
:100D5000360290933702A0933802B0933902809103
:100D60004A0290914B02A0914C02B0914D028093A7
:100D7000460290934702A0934802B09349028091A3
:100D8000520290915302A0915402B0915502809367
:100D90004E0290934F02A0935002B0935102809163
:100DA00084028F5F809384021092850281E0CA32B0
:100DB00009F080E080937302D1101D2D81E891E04D
:100DC0000E94DA01892B09F491CE81E891E00E941A
:100DD000B801C82F8091870290918802A091890262
:100DE000B0918A020196A11DB11D80938702909354
:100DF0008802A0938902B0938A02C43209F4B6C172
:100E0000E0918502C5320CF0FDCECA3019F0CD302C
:100E100009F0B9C1EF3008F401CFD12CC0CF215671
:100E2000263018F48755910910CFC0970ECF9156F0
:100E3000963018F42755310917CF2053310914CFB4
:100E40008091420290914302A0914402B0914502E8
:100E500080933E0290933F02A0934002B0934102E0
:100E60008091220290912302A0912402B091250248
:100E700080931E0290931F02A0932002B093210240
:100E80008091320290913302A0913402B0913502E8
:100E900080932E0290932F02A0933002B0933102E0
:100EA00080913A0290913B02A0913C02B0913D02A8
:100EB0008093360290933702A0933802B0933902A0
:100EC000809160029091610290935F0280935E0234
:100ED00080915A0290915B02A0915C02B0915D02F8
:100EE0008093560290935702A0935802B0935902F0
:100EF00056CF80918D0290918E02019690938E0232
:100F000080938D028ACF91111CC0A4E7B2E04DE519
:100F100051E0CD01FC012191CF01222309F450C100
:100F2000FA013191AF012317A9F3E3E6F1E08D91C6
:100F3000882309F448C191918917C9F3D09383029A
:100F40002ECFE0918302E23009F467CF80917402E2
:100F5000882309F462CF20E2E29FF0011124E92BFB
:100F60003197E932F10508F01ACFE754F84F0C94A5
:100F70007A0BFF071A082F084A0855088F089608A9
:100F8000A008AB08CF06CF06CF06CF06CF06CF0608
:100F9000CF06CF06CF06CF06CF06CF06CF06CF06A9
:100FA000CF06CF06CF06CF06CF06CF06CF06CF0699
:100FB000CF06FF0714081A082F084A0855087008BA
:100FC0007B08E207E4E7F2E020E030E0A901C1900D
:100FD00080ED8C0D8A3008F099C0AAE0B0E00E9444
:100FE000800B2C2DCC0C330B440B550B260F371FCD
:100FF000481F591F2053310941095109E8CF0E9468
:101000005F006093220270932302809324029093E6
:1010100025020E94700160936602709367028093BC
:10102000680290936902BBCE91E0813409F47BC0E1
:1010300090E079C00E94D100609332027093330235
:1010400080933402909335020E94700160936E0287
:1010500070936F028093700290937102A0CE8335DB
:1010600009F0DBCE8091320290913302A0913402DC
:10107000B0913502B095A095909581959F4FAF4F57
:10108000BF4F8093320290933302A0933402B09307
:10109000350285CE0E94D10060933A0270933B02E4
:1010A00080933C0290933D027ACE873509F0B5CE0D
:1010B00080913A0290913B02A0913C02B0913D0296
:1010C000B095A095909581959F4FAF4FBF4F80935E
:1010D0003A0290933B02A0933C02B0933D025FCE54
:1010E0000E945F0060934A0270934B0280934C020F
:1010F00090934D0254CE0E945F0060935202709311
:101100005302809354029093550249CE20932A02B1
:1011100030932B0240932C0250932D0240CE91E04D
:1011200081330CF485CF9093860239CE84E792E028
:101130000E94E608992790936102809360022FCE67
:101140000E945F0060935A0270935B0280935C027E
:1011500090935D0224CE0E945F00609342027093E0
:101160004302809344029093450219CE1092850267
:101170001092840210927202D09383021092730232
:10118000109286021BCEEE3040F481E08E0F8093E9
:101190008502F0E0EC58FD4FC0838091730281110D
:1011A0000DCE80917202C827C093720207CE412CE7
:1011B000512C8AE7682E84E4782E53014201E6CC54
:1011C00000938302ECCD10928302E9CDFC018827C5
:1011D0009927E89421912032E9F3293010F02E303C
:1011E000C8F32B3241F02D3239F4689404C00E94C8
:1011F0000409820F911D219120532A30C0F31EF45F
:10120000909581959F4F08957AE0979F902D879FA5
:10121000802D910D112408955058BB27AA270E94B4
:1012200024090C94970A0E94890A38F00E94900AB7
:1012300020F039F49F3F19F426F40C94860A0EF43A
:10124000E095E7FB0C94800AE92F0E94A80A58F366
:10125000BA17620773078407950720F079F4A6F59B
:101260000C94CA0A0EF4E0950B2EBA2FA02D0B0198
:10127000B90190010C01CA01A0011124FF27591BDB
:1012800099F0593F50F4503E68F11A16F040A22FE1
:10129000232F342F4427585FF3CF46953795279552
:1012A000A795F0405395C9F77EF41F16BA0B620B51
:1012B000730B840BBAF09150A1F0FF0FBB1F661F98
:1012C000771F881FC2F70EC0BA0F621F731F841FDB
:1012D00048F4879577956795B795F7959E3F08F001
:1012E000B0CF9395880F08F09927EE0F97958795C3
:1012F00008950E945C0A08F481E008950E94920912
:101300000C94970A0E94900A58F00E94890A40F0B3
:1013100029F45F3F29F00C94800A51110C94CB0AF8
:101320000C94860A0E94A80A68F39923B1F3552306
:1013300091F3951B550BBB27AA27621773078407E8
:1013400038F09F5F5F4F220F331F441FAA1FA9F37E
:1013500035D00E2E3AF0E0E832D091505040E6956C
:10136000001CCAF72BD0FE2F29D0660F771F881FCD
:10137000BB1F261737074807AB07B0E809F0BB0BC0
:10138000802DBF01FF2793585F4F3AF09E3F5105D4
:1013900078F00C94800A0C94CB0A5F3FE4F3983EFB
:1013A000D4F3869577956795B795F7959F5FC9F7BD
:1013B000880F911D9695879597F90895E1E0660F3E
:1013C000771F881FBB1F621773078407BA0720F0B7
:1013D000621B730B840BBA0BEE1F88F7E095089520
:1013E0000E94B00A88F09F5798F0B92F9927B751FB
:1013F000B0F0E1F0660F771F881F991F1AF0BA95B9
:10140000C9F714C0B13091F00E94CA0AB1E0089542
:101410000C94CA0A672F782F8827B85F39F0B93F34
:10142000CCF3869577956795B395D9F73EF490956B
:101430008095709561957F4F8F4F9F4F0895E894E9
:1014400009C097FB3EF490958095709561957F4F0C
:101450008F4F9F4F9923A9F0F92F96E9BB279395BA
:10146000F695879577956795B795F111F8CFFAF4CA
:10147000BB0F11F460FF1BC06F5F7F4F8F4F9F4FFB
:1014800016C0882311F096E911C0772321F09EE859
:10149000872F762F05C0662371F096E8862F70E0BF
:1014A00060E02AF09A95660F771F881FDAF7880F99
:1014B0009695879597F90895990F0008550FAA0BEF
:1014C000E0E8FEEF16161706E807F907C0F0121657
:1014D0001306E407F50798F0621B730B840B950B5A
:1014E00039F40A2661F0232B242B252B21F40895AF
:1014F0000A2609F4A140A6958FEF811D811D08954C
:1015000097F99F6780E870E060E008959FEF80ECB6
:10151000089500240A941616170618060906089559
:1015200000240A9412161306140605060895092EBF
:101530000394000C11F4882352F0BB0F40F4BF2B2E
:1015400011F460FF04C06F5F7F4F8F4F9F4F08956E
:1015500057FD9058440F551F59F05F3F71F0479564
:10156000880F97FB991F61F09F3F79F08795089549
:10157000121613061406551FF2CF4695F1DF08C068
:10158000161617061806991FF1CF86957105610585
:1015900008940895E894BB2766277727CB0197F92D
:1015A00008950E945C0A08F48FEF08950E94E90AEA
:1015B0000C94970A0E94890A38F00E94900A20F041
:1015C000952311F00C94800A0C94860A11240C9433
:1015D000CB0A0E94A80A70F3959FC1F3950F50E0C3
:1015E000551F629FF001729FBB27F00DB11D639FD5
:1015F000AA27F00DB11DAA1F649F6627B00DA11D7B
:10160000661F829F2227B00DA11D621F739FB00D20
:10161000A11D621F839FA00D611D221F749F332790
:10162000A00D611D231F849F600D211D822F762F29
:101630006A2F11249F5750409AF0F1F088234AF006
:10164000EE0FFF1FBB1F661F771F881F9150504072
:10165000A9F79E3F510580F00C94800A0C94CB0AA8
:101660005F3FE4F3983ED4F3869577956795B795F9
:10167000F795E7959F5FC1F7FE2B880F911D969513
:10168000879597F908950E945C0A880B990B089535
:10169000DB018F939F930E94800BBF91AF91A29F1C
:1016A000800D911DA39F900DB29F900D1124089560
:1016B000A1E21A2EAA1BBB1BFD010DC0AA1FBB1F56
:1016C000EE1FFF1FA217B307E407F50720F0A21BC8
:1016D000B30BE40BF50B661F771F881F991F1A9435
:1016E00069F760957095809590959B01AC01BD015F
:1016F000CF010895EE0FFF1F0590F491E02D09949E
:101700000E94930BA59F900DB49F900DA49F800DF8
:10171000911D11240895B7FF0C94800B0E94800B3B
:10172000821B930B0895A29FB001B39FC001A39F9A
:10173000700D811D1124911DB29F700D811D11240A
:08174000911D0895F894FFCFFC
:10174800000000001C027C01A9016902DA01B8014D
:10175800CC016E616E00696E66006F7666002D2D95
:101768002D20475053204D4F4E49544F52494E4714
:101778002053595354454D202D2D2D000D0A005747
:10178800616974696E6720666F7220736174656C35
:101798006C69746520646174612E2E2E0047505266
:1017A8004D43004750474741004C41543A200020E0
:0817B8007C204C4F4E3A20004A
:00000001FF
